{
    "contractName": "Event",
    "abi": [
        {
            "inputs": [],
            "stateMutability": "nonpayable",
            "type": "constructor"
        },
        {
            "inputs": [
                {
                    "internalType": "address",
                    "name": "owner",
                    "type": "address"
                }
            ],
            "name": "OwnableInvalidOwner",
            "type": "error"
        },
        {
            "inputs": [
                {
                    "internalType": "address",
                    "name": "account",
                    "type": "address"
                }
            ],
            "name": "OwnableUnauthorizedAccount",
            "type": "error"
        },
        {
            "anonymous": false,
            "inputs": [
                {
                    "indexed": true,
                    "internalType": "address",
                    "name": "previousOwner",
                    "type": "address"
                },
                {
                    "indexed": true,
                    "internalType": "address",
                    "name": "newOwner",
                    "type": "address"
                }
            ],
            "name": "OwnershipTransferred",
            "type": "event"
        },
        {
            "anonymous": false,
            "inputs": [
                {
                    "indexed": true,
                    "internalType": "address",
                    "name": "buyer",
                    "type": "address"
                },
                {
                    "indexed": false,
                    "internalType": "uint256",
                    "name": "ticketno",
                    "type": "uint256"
                },
                {
                    "indexed": false,
                    "internalType": "uint256",
                    "name": "amount",
                    "type": "uint256"
                }
            ],
            "name": "PurchasedTicket",
            "type": "event"
        },
        {
            "anonymous": false,
            "inputs": [
                {
                    "indexed": true,
                    "internalType": "address",
                    "name": "user",
                    "type": "address"
                },
                {
                    "indexed": false,
                    "internalType": "uint256",
                    "name": "ticketno",
                    "type": "uint256"
                },
                {
                    "indexed": false,
                    "internalType": "uint256",
                    "name": "amount",
                    "type": "uint256"
                }
            ],
            "name": "Refund",
            "type": "event"
        },
        {
            "anonymous": false,
            "inputs": [
                {
                    "indexed": true,
                    "internalType": "address",
                    "name": "withdraweth",
                    "type": "address"
                },
                {
                    "indexed": false,
                    "internalType": "uint256",
                    "name": "amount",
                    "type": "uint256"
                }
            ],
            "name": "Withdraw",
            "type": "event"
        },
        {
            "anonymous": false,
            "inputs": [
                {
                    "indexed": true,
                    "internalType": "address",
                    "name": "user",
                    "type": "address"
                },
                {
                    "indexed": false,
                    "internalType": "uint256",
                    "name": "ticketno",
                    "type": "uint256"
                }
            ],
            "name": "ticketinfo",
            "type": "event"
        },
        {
            "inputs": [
                {
                    "internalType": "string",
                    "name": "_name",
                    "type": "string"
                },
                {
                    "internalType": "string",
                    "name": "_email",
                    "type": "string"
                },
                {
                    "internalType": "uint256",
                    "name": "_phoneNo",
                    "type": "uint256"
                }
            ],
            "name": "Buyvipseats",
            "outputs": [],
            "stateMutability": "payable",
            "type": "function"
        },
        {
            "inputs": [],
            "name": "checkticket",
            "outputs": [
                {
                    "components": [
                        {
                            "internalType": "address",
                            "name": "buyer",
                            "type": "address"
                        },
                        {
                            "internalType": "string",
                            "name": "name",
                            "type": "string"
                        },
                        {
                            "internalType": "string",
                            "name": "email",
                            "type": "string"
                        },
                        {
                            "internalType": "uint256",
                            "name": "phoneNo",
                            "type": "uint256"
                        },
                        {
                            "internalType": "uint256",
                            "name": "ticketNo",
                            "type": "uint256"
                        },
                        {
                            "internalType": "bool",
                            "name": "refunded",
                            "type": "bool"
                        }
                    ],
                    "internalType": "struct Event.Ticket",
                    "name": "t",
                    "type": "tuple"
                }
            ],
            "stateMutability": "view",
            "type": "function"
        },
        {
            "inputs": [],
            "name": "checkticketvip",
            "outputs": [
                {
                    "components": [
                        {
                            "internalType": "address",
                            "name": "buyer",
                            "type": "address"
                        },
                        {
                            "internalType": "string",
                            "name": "name",
                            "type": "string"
                        },
                        {
                            "internalType": "string",
                            "name": "email",
                            "type": "string"
                        },
                        {
                            "internalType": "uint256",
                            "name": "phoneNo",
                            "type": "uint256"
                        },
                        {
                            "internalType": "uint256",
                            "name": "ticketNo",
                            "type": "uint256"
                        },
                        {
                            "internalType": "bool",
                            "name": "refunded",
                            "type": "bool"
                        }
                    ],
                    "internalType": "struct Event.Ticket",
                    "name": "t",
                    "type": "tuple"
                }
            ],
            "stateMutability": "view",
            "type": "function"
        },
        {
            "inputs": [
                {
                    "internalType": "uint256",
                    "name": "",
                    "type": "uint256"
                }
            ],
            "name": "details",
            "outputs": [
                {
                    "internalType": "address",
                    "name": "buyer",
                    "type": "address"
                },
                {
                    "internalType": "string",
                    "name": "name",
                    "type": "string"
                },
                {
                    "internalType": "string",
                    "name": "email",
                    "type": "string"
                },
                {
                    "internalType": "uint256",
                    "name": "phoneNo",
                    "type": "uint256"
                },
                {
                    "internalType": "uint256",
                    "name": "ticketNo",
                    "type": "uint256"
                },
                {
                    "internalType": "bool",
                    "name": "refunded",
                    "type": "bool"
                }
            ],
            "stateMutability": "view",
            "type": "function"
        },
        {
            "inputs": [],
            "name": "eth",
            "outputs": [
                {
                    "internalType": "uint256",
                    "name": "",
                    "type": "uint256"
                }
            ],
            "stateMutability": "view",
            "type": "function"
        },
        {
            "inputs": [],
            "name": "ethforvip",
            "outputs": [
                {
                    "internalType": "uint256",
                    "name": "",
                    "type": "uint256"
                }
            ],
            "stateMutability": "view",
            "type": "function"
        },
        {
            "inputs": [],
            "name": "eventDate",
            "outputs": [
                {
                    "internalType": "uint256",
                    "name": "",
                    "type": "uint256"
                }
            ],
            "stateMutability": "view",
            "type": "function"
        },
        {
            "inputs": [],
            "name": "owner",
            "outputs": [
                {
                    "internalType": "address",
                    "name": "",
                    "type": "address"
                }
            ],
            "stateMutability": "view",
            "type": "function"
        },
        {
            "inputs": [
                {
                    "internalType": "string",
                    "name": "_name",
                    "type": "string"
                },
                {
                    "internalType": "string",
                    "name": "_email",
                    "type": "string"
                },
                {
                    "internalType": "uint256",
                    "name": "_phoneNo",
                    "type": "uint256"
                }
            ],
            "name": "payforticket",
            "outputs": [],
            "stateMutability": "payable",
            "type": "function"
        },
        {
            "inputs": [],
            "name": "refund",
            "outputs": [],
            "stateMutability": "nonpayable",
            "type": "function"
        },
        {
            "inputs": [],
            "name": "refundforvip",
            "outputs": [],
            "stateMutability": "nonpayable",
            "type": "function"
        },
        {
            "inputs": [],
            "name": "renounceOwnership",
            "outputs": [],
            "stateMutability": "nonpayable",
            "type": "function"
        },
        {
            "inputs": [],
            "name": "seats",
            "outputs": [
                {
                    "internalType": "uint256",
                    "name": "",
                    "type": "uint256"
                }
            ],
            "stateMutability": "view",
            "type": "function"
        },
        {
            "inputs": [
                {
                    "internalType": "uint256",
                    "name": "_eventdate",
                    "type": "uint256"
                }
            ],
            "name": "seteventdate",
            "outputs": [],
            "stateMutability": "nonpayable",
            "type": "function"
        },
        {
            "inputs": [
                {
                    "internalType": "uint256",
                    "name": "_ticket",
                    "type": "uint256"
                },
                {
                    "internalType": "uint256",
                    "name": "_vipticket",
                    "type": "uint256"
                }
            ],
            "name": "setticketprize",
            "outputs": [],
            "stateMutability": "nonpayable",
            "type": "function"
        },
        {
            "inputs": [],
            "name": "soldticket",
            "outputs": [
                {
                    "internalType": "uint256",
                    "name": "",
                    "type": "uint256"
                }
            ],
            "stateMutability": "view",
            "type": "function"
        },
        {
            "inputs": [],
            "name": "soldvipticket",
            "outputs": [
                {
                    "internalType": "uint256",
                    "name": "",
                    "type": "uint256"
                }
            ],
            "stateMutability": "view",
            "type": "function"
        },
        {
            "inputs": [
                {
                    "internalType": "address",
                    "name": "newOwner",
                    "type": "address"
                }
            ],
            "name": "transferOwnership",
            "outputs": [],
            "stateMutability": "nonpayable",
            "type": "function"
        },
        {
            "inputs": [
                {
                    "internalType": "address",
                    "name": "",
                    "type": "address"
                }
            ],
            "name": "usertoTicket",
            "outputs": [
                {
                    "internalType": "uint256",
                    "name": "",
                    "type": "uint256"
                }
            ],
            "stateMutability": "view",
            "type": "function"
        },
        {
            "inputs": [
                {
                    "internalType": "address",
                    "name": "",
                    "type": "address"
                }
            ],
            "name": "usertoVipTicket",
            "outputs": [
                {
                    "internalType": "uint256",
                    "name": "",
                    "type": "uint256"
                }
            ],
            "stateMutability": "view",
            "type": "function"
        },
        {
            "inputs": [
                {
                    "internalType": "uint256",
                    "name": "",
                    "type": "uint256"
                }
            ],
            "name": "vipdetails",
            "outputs": [
                {
                    "internalType": "address",
                    "name": "buyer",
                    "type": "address"
                },
                {
                    "internalType": "string",
                    "name": "name",
                    "type": "string"
                },
                {
                    "internalType": "string",
                    "name": "email",
                    "type": "string"
                },
                {
                    "internalType": "uint256",
                    "name": "phoneNo",
                    "type": "uint256"
                },
                {
                    "internalType": "uint256",
                    "name": "ticketNo",
                    "type": "uint256"
                },
                {
                    "internalType": "bool",
                    "name": "refunded",
                    "type": "bool"
                }
            ],
            "stateMutability": "view",
            "type": "function"
        },
        {
            "inputs": [],
            "name": "vipseats",
            "outputs": [
                {
                    "internalType": "uint256",
                    "name": "",
                    "type": "uint256"
                }
            ],
            "stateMutability": "view",
            "type": "function"
        },
        {
            "inputs": [],
            "name": "withdraw",
            "outputs": [],
            "stateMutability": "nonpayable",
            "type": "function"
        }
    ],
    "bytecode": "6080806040523460b457331560a1575f8054336001600160a01b0319821681178355916001600160a01b03909116907f8be0079c531659141344cd1fd0a4f28419497f9722a3daafe3b4186f6b6457e09080a366038d7ea4c68000600155660e35fa931a00006002556064600355603260045562093a804201804211608d5760055561159690816100b98239f35b634e487b7160e01b5f52601160045260245ffd5b631e4fbdf760e01b5f525f60045260245ffd5b5f80fdfe60806040526004361015610011575f80fd5b5f3560e01c8063332c4fde14610f6c578063352371fe14610bcb5780633ccfd60b14610ad15780633d78467714610a685780633ea5261414610a105780634b87bb84146109a65780634bfbe5df1461098957806353ab36481461096c578063590e1ae314610899578063609af3a7146107c0578063715018a6146107695780637ab050041461072d5780638c7c9e0c146107105780638da5cb5b146106e957806398721575146106c85780639c5655d6146106ab578063a005ec7a14610638578063a55671971461061b578063acae79bb146105df578063ad90cf8d146101dd578063d94d3914146101c0578063ef265cbe146101a35763f2fde38b14610116575f80fd5b3461019f57602036600319011261019f576004356001600160a01b0381169081900361019f5761014461153a565b801561018c575f80546001600160a01b03198116831782556001600160a01b0316907f8be0079c531659141344cd1fd0a4f28419497f9722a3daafe3b4186f6b6457e09080a3005b631e4fbdf760e01b5f525f60045260245ffd5b5f80fd5b3461019f575f36600319011261019f576020600854604051908152f35b3461019f575f36600319011261019f576020600954604051908152f35b6101e6366111da565b6101f66002939293543414611293565b6004546102048115156112eb565b335f52600760205260405f205415806105cb575b15610586575f19810190811161057257600455600954916001830180931161057257604051916102478361102c565b338352602083019182526040830194855260608301908152608083019084825260a08401925f8452600954600160401b81101561048d5780600161029092016009556009610fdb565b95909561055f575185546001600160a01b0319166001600160a01b0391909116178555518051600186019167ffffffffffffffff821161048d5781906102d68454610ff4565b601f811161050f575b50602090601f83116001146104ac575f926104a1575b50508160011b915f199060031b1c19161790555b60028401955195865167ffffffffffffffff811161048d5761032b8254610ff4565b601f8111610448575b506020601f82116001146103dc5790806005969594939261038d999a5f926103d1575b50508160011b915f199060031b1c19161790555b51600385015551600484015551151591019060ff801983541691151516179055565b335f5260076020528060405f205560025460405191825260208201527f7d1cd329a11d8807f0374627923b6cd32942b74b38b1accf931d70a507ff739e60403392a2005b015190508a80610357565b601f19821698835f52815f20995f5b81811061043057509960019284926005999897969561038d9c9d10610418575b505050811b01905561036b565b01515f1960f88460031b161c191690558a808061040b565b838301518c556001909b019a602093840193016103eb565b825f5260205f20601f830160051c81019160208410610483575b601f0160051c01905b8181106104785750610334565b5f815560010161046b565b9091508190610462565b634e487b7160e01b5f52604160045260245ffd5b0151905089806102f5565b5f8581528281209350601f198516905b8181106104f757509084600195949392106104df575b505050811b019055610309565b01515f1960f88460031b161c191690558980806104d2565b929360206001819287860151815501950193016104bc565b909150835f5260205f20601f840160051c81019160208510610555575b90601f859493920160051c01905b81811061054757506102df565b5f815584935060010161053a565b909150819061052c565b634e487b7160e01b5f525f60045260245ffd5b634e487b7160e01b5f52601160045260245ffd5b60405162461bcd60e51b815260206004820152601a60248201527f796f75206861766520746f20627579206f6e65207469636b65740000000000006044820152606490fd5b50335f52600660205260405f205415610218565b3461019f57602036600319011261019f576004356001600160a01b0381169081900361019f575f526006602052602060405f2054604051908152f35b3461019f575f36600319011261019f576020600454604051908152f35b3461019f57602036600319011261019f5760043560085481101561019f5761065f90610fbf565b5080546001600160a01b03166106a761067a6001840161106a565b926106876002820161106a565b90600381015460ff6005600484015493015416926040519687968761112e565b0390f35b3461019f575f36600319011261019f576020600354604051908152f35b3461019f57602036600319011261019f576106e161153a565b600435600555005b3461019f575f36600319011261019f575f546040516001600160a01b039091168152602090f35b3461019f575f36600319011261019f576020600154604051908152f35b3461019f57602036600319011261019f576004356001600160a01b0381169081900361019f575f526007602052602060405f2054604051908152f35b3461019f575f36600319011261019f5761078161153a565b5f80546001600160a01b0319811682556001600160a01b03167f8be0079c531659141344cd1fd0a4f28419497f9722a3daafe3b4186f6b6457e08280a3005b3461019f575f36600319011261019f57335f52600760205260405f20546107ea6005544210611468565b6107f58115156114ac565b335f5260076020525f604081205560045460018101809111610572576004555f19810181811161057257600954811061087b575b506108455f808080600254335af161083f611328565b506114ee565b60025460405191825260208201527f73f04af9dcc582a923ec15d3eea990fe34adabfff2879e28d44572e01a54abb660403392a2005b610886600591610f8f565b5001805460ff1916600117905581610829565b3461019f575f36600319011261019f57335f52600660205260405f20546108c36005544210611468565b6108ce8115156114ac565b335f5260066020525f604081205560035460018101809111610572576003555f19810181811161057257600854811061094e575b506109185f808080600154335af161083f611328565b60015460405191825260208201527f73f04af9dcc582a923ec15d3eea990fe34adabfff2879e28d44572e01a54abb660403392a2005b610959600591610fbf565b5001805460ff1916600117905581610902565b3461019f575f36600319011261019f576020600254604051908152f35b3461019f575f36600319011261019f576020600554604051908152f35b3461019f575f36600319011261019f576109be611357565b50335f52600760205260405f20546109d7811515611389565b5f19810190811161057257610a046109fe6106a7926109f960095482106113cb565b610f8f565b50611408565b6040519182918261122d565b3461019f575f36600319011261019f57610a28611357565b50335f52600660205260405f2054610a41811515611389565b5f19810190811161057257610a046109fe6106a792610a6360085482106113cb565b610fbf565b3461019f57604036600319011261019f57602435600435610a8761153a565b670de0b6b3a7640000810290808204670de0b6b3a7640000149015171561057257600155670de0b6b3a7640000810290808204670de0b6b3a7640000149015171561057257600255005b3461019f575f36600319011261019f57610ae961153a565b600554421115610b9257475f8080808460018060a01b038254165af1610b0d611328565b5015610b4d575f546040519182526001600160a01b0316907f884edad9ce6fa2440d8a54cc123490eb96d2768479d49ff9c7366125a942436490602090a2005b60405162461bcd60e51b815260206004820152601c60248201527f6572726f723a6661696c20746f207769746864726177206574686572000000006044820152606490fd5b60405162461bcd60e51b815260206004820152601160248201527032bb32b73a1034b9903737ba1037bb32b960791b6044820152606490fd5b610bd4366111da565b610be46001939293543414611293565b600354610bf28115156112eb565b335f52600660205260405f20541580610f58575b15610f13575f1981019081116105725760035560085491600183018093116105725760405191610c358361102c565b338352602083019182526040830194855260608301908152608083019084825260a08401925f8452600854600160401b81101561048d57806001610c7e92016008556008610fdb565b95909561055f575185546001600160a01b0319166001600160a01b0391909116178555518051600186019167ffffffffffffffff821161048d578190610cc48454610ff4565b601f8111610ec3575b50602090601f8311600114610e60575f92610e55575b50508160011b915f199060031b1c19161790555b60028401955195865167ffffffffffffffff811161048d57610d198254610ff4565b601f8111610e10575b506020601f8211600114610dbd57908060059695949392610d79999a5f926103d15750508160011b915f199060031b1c191617905551600385015551600484015551151591019060ff801983541691151516179055565b335f5260066020528060405f205560015460405191825260208201527f7d1cd329a11d8807f0374627923b6cd32942b74b38b1accf931d70a507ff739e60403392a2005b601f19821698835f52815f20995f5b818110610df8575099600192849260059998979695610d799c9d1061041857505050811b01905561036b565b838301518c556001909b019a60209384019301610dcc565b825f5260205f20601f830160051c81019160208410610e4b575b601f0160051c01905b818110610e405750610d22565b5f8155600101610e33565b9091508190610e2a565b015190508980610ce3565b5f8581528281209350601f198516905b818110610eab5750908460019594939210610e93575b505050811b019055610cf7565b01515f1960f88460031b161c19169055898080610e86565b92936020600181928786015181550195019301610e70565b909150835f5260205f20601f840160051c81019160208510610f09575b90601f859493920160051c01905b818110610efb5750610ccd565b5f8155849350600101610eee565b9091508190610ee0565b60405162461bcd60e51b815260206004820152601860248201527f796f7520616c7265616479206f776e2061207469636b657400000000000000006044820152606490fd5b50335f52600760205260405f205415610c06565b3461019f57602036600319011261019f5760043560095481101561019f5761065f905b600954811015610fab5760095f52600660205f20910201905f90565b634e487b7160e01b5f52603260045260245ffd5b600854811015610fab5760085f52600660205f20910201905f90565b8054821015610fab575f52600660205f20910201905f90565b90600182811c92168015611022575b602083101461100e57565b634e487b7160e01b5f52602260045260245ffd5b91607f1691611003565b60c0810190811067ffffffffffffffff82111761048d57604052565b90601f8019910116810190811067ffffffffffffffff82111761048d57604052565b9060405191825f82549261107d84610ff4565b80845293600181169081156110e857506001146110a4575b506110a292500383611048565b565b90505f9291925260205f20905f915b8183106110cc5750509060206110a2928201015f611095565b60209193508060019154838589010152019101909184926110b3565b9050602092506110a294915060ff191682840152151560051b8201015f611095565b805180835260209291819084018484015e5f828201840152601f01601f1916010190565b94919261115860a09598979461116693600180891b0316885260c0602089015260c088019061110a565b90868203604088015261110a565b95606085015260808401521515910152565b67ffffffffffffffff811161048d57601f01601f191660200190565b81601f8201121561019f578035906111ab82611178565b926111b96040519485611048565b8284526020838301011161019f57815f926020809301838601378301015290565b90606060031983011261019f5760043567ffffffffffffffff811161019f578261120691600401611194565b916024359067ffffffffffffffff821161019f5761122691600401611194565b9060443590565b6020815260018060a01b03825116602082015260c060a061127561125f602086015184604087015260e086019061110a565b6040860151858203601f1901606087015261110a565b93606081015160808501526080810151828501520151151591015290565b1561129a57565b60405162461bcd60e51b815260206004820152602360248201527f796f75206861766520746f2070617920657861637420616d6f756e74206f66206044820152620cae8d60eb1b6064820152608490fd5b156112f257565b60405162461bcd60e51b815260206004820152600e60248201526d1cd9585d1cc8185c9948199d5b1b60921b6044820152606490fd5b3d15611352573d9061133982611178565b916113476040519384611048565b82523d5f602084013e565b606090565b604051906113648261102c565b5f60a08382815260606020820152606060408201528260608201528260808201520152565b1561139057565b60405162461bcd60e51b81526020600482015260136024820152721e5bdd48191bdb9d081bdddb881d1a58dad95d606a1b6044820152606490fd5b156113d257565b60405162461bcd60e51b815260206004820152600e60248201526d040d2dcecc2d8d2c840d2dcc8caf60931b6044820152606490fd5b906040516114158161102c565b60a060ff60058395600180851b0381541685526114346001820161106a565b60208601526114456002820161106a565b604086015260038101546060860152600481015460808601520154161515910152565b1561146f57565b60405162461bcd60e51b81526020600482015260156024820152743932b33ab732103832b934b7b21034b99037bb32b960591b6044820152606490fd5b156114b357565b60405162461bcd60e51b81526020600482015260136024820152721e5bdd48191bdb9d081bdddb88151a58dad95d606a1b6044820152606490fd5b156114f557565b60405162461bcd60e51b815260206004820152601760248201527f6572726f723a6973737565207769746820726566756e640000000000000000006044820152606490fd5b5f546001600160a01b0316330361154d57565b63118cdaa760e01b5f523360045260245ffdfea26469706673582212207f22054072b5ded6cc18e9dc1bbf6c9ab5ec650c18d9f98870655a4370beca8964736f6c634300081e0033",
    "sourcePath": "/home/ritesh/Public/solidity/dapp1/contracts/event.sol",
    "compiler": {
        "name": "solc",
        "version": "0.8.30+commit.73712a01"
    },
    "functionHashes": {
        "Buyvipseats(string,string,uint256)": "ad90cf8d",
        "checkticket()": "3ea52614",
        "checkticketvip()": "4b87bb84",
        "details(uint256)": "a005ec7a",
        "eth()": "8c7c9e0c",
        "ethforvip()": "53ab3648",
        "eventDate()": "4bfbe5df",
        "owner()": "8da5cb5b",
        "payforticket(string,string,uint256)": "352371fe",
        "refund()": "590e1ae3",
        "refundforvip()": "609af3a7",
        "renounceOwnership()": "715018a6",
        "seats()": "9c5655d6",
        "seteventdate(uint256)": "98721575",
        "setticketprize(uint256,uint256)": "3d784677",
        "soldticket()": "ef265cbe",
        "soldvipticket()": "d94d3914",
        "transferOwnership(address)": "f2fde38b",
        "usertoTicket(address)": "acae79bb",
        "usertoVipTicket(address)": "7ab05004",
        "vipdetails(uint256)": "332c4fde",
        "vipseats()": "a5567197",
        "withdraw()": "3ccfd60b"
    },
    "gasEstimates": {
        "creation": {
            "codeDepositCost": "1105200",
            "executionCost": "137509",
            "totalCost": "1242709"
        },
        "external": {
            "Buyvipseats(string,string,uint256)": "infinite",
            "checkticket()": "infinite",
            "checkticketvip()": "infinite",
            "details(uint256)": "infinite",
            "eth()": "2512",
            "ethforvip()": "2402",
            "eventDate()": "2380",
            "owner()": "2557",
            "payforticket(string,string,uint256)": "infinite",
            "refund()": "infinite",
            "refundforvip()": "infinite",
            "renounceOwnership()": "28262",
            "seats()": "2578",
            "seteventdate(uint256)": "24701",
            "setticketprize(uint256,uint256)": "46680",
            "soldticket()": "2710",
            "soldvipticket()": "2688",
            "transferOwnership(address)": "28604",
            "usertoTicket(address)": "2755",
            "usertoVipTicket(address)": "2601",
            "vipdetails(uint256)": "infinite",
            "vipseats()": "2622",
            "withdraw()": "infinite"
        }
    }
}