{
  "_format": "hh3-artifact-1",
  "contractName": "Event",
  "sourceName": "contracts/event.sol",
  "abi": [
    {
      "inputs": [],
      "stateMutability": "nonpayable",
      "type": "constructor"
    },
    {
      "inputs": [
        {
          "internalType": "address",
          "name": "owner",
          "type": "address"
        }
      ],
      "name": "OwnableInvalidOwner",
      "type": "error"
    },
    {
      "inputs": [
        {
          "internalType": "address",
          "name": "account",
          "type": "address"
        }
      ],
      "name": "OwnableUnauthorizedAccount",
      "type": "error"
    },
    {
      "anonymous": false,
      "inputs": [
        {
          "indexed": true,
          "internalType": "address",
          "name": "previousOwner",
          "type": "address"
        },
        {
          "indexed": true,
          "internalType": "address",
          "name": "newOwner",
          "type": "address"
        }
      ],
      "name": "OwnershipTransferred",
      "type": "event"
    },
    {
      "anonymous": false,
      "inputs": [
        {
          "indexed": true,
          "internalType": "address",
          "name": "buyer",
          "type": "address"
        },
        {
          "indexed": false,
          "internalType": "uint256",
          "name": "ticketno",
          "type": "uint256"
        },
        {
          "indexed": false,
          "internalType": "uint256",
          "name": "amount",
          "type": "uint256"
        }
      ],
      "name": "PurchasedTicket",
      "type": "event"
    },
    {
      "anonymous": false,
      "inputs": [
        {
          "indexed": true,
          "internalType": "address",
          "name": "user",
          "type": "address"
        },
        {
          "indexed": false,
          "internalType": "uint256",
          "name": "ticketno",
          "type": "uint256"
        },
        {
          "indexed": false,
          "internalType": "uint256",
          "name": "amount",
          "type": "uint256"
        }
      ],
      "name": "Refund",
      "type": "event"
    },
    {
      "anonymous": false,
      "inputs": [
        {
          "indexed": true,
          "internalType": "address",
          "name": "withdraweth",
          "type": "address"
        },
        {
          "indexed": false,
          "internalType": "uint256",
          "name": "amount",
          "type": "uint256"
        }
      ],
      "name": "Withdraw",
      "type": "event"
    },
    {
      "anonymous": false,
      "inputs": [
        {
          "indexed": true,
          "internalType": "address",
          "name": "user",
          "type": "address"
        },
        {
          "indexed": false,
          "internalType": "uint256",
          "name": "ticketno",
          "type": "uint256"
        }
      ],
      "name": "ticketinfo",
      "type": "event"
    },
    {
      "inputs": [
        {
          "internalType": "string",
          "name": "_name",
          "type": "string"
        },
        {
          "internalType": "string",
          "name": "_email",
          "type": "string"
        },
        {
          "internalType": "uint256",
          "name": "_phoneNo",
          "type": "uint256"
        }
      ],
      "name": "Buyvipseats",
      "outputs": [],
      "stateMutability": "payable",
      "type": "function"
    },
    {
      "inputs": [],
      "name": "checkticket",
      "outputs": [
        {
          "components": [
            {
              "internalType": "address",
              "name": "buyer",
              "type": "address"
            },
            {
              "internalType": "string",
              "name": "name",
              "type": "string"
            },
            {
              "internalType": "string",
              "name": "email",
              "type": "string"
            },
            {
              "internalType": "uint256",
              "name": "phoneNo",
              "type": "uint256"
            },
            {
              "internalType": "uint256",
              "name": "ticketNo",
              "type": "uint256"
            },
            {
              "internalType": "bool",
              "name": "refunded",
              "type": "bool"
            }
          ],
          "internalType": "struct Event.Ticket",
          "name": "t",
          "type": "tuple"
        }
      ],
      "stateMutability": "view",
      "type": "function"
    },
    {
      "inputs": [],
      "name": "checkticketvip",
      "outputs": [
        {
          "components": [
            {
              "internalType": "address",
              "name": "buyer",
              "type": "address"
            },
            {
              "internalType": "string",
              "name": "name",
              "type": "string"
            },
            {
              "internalType": "string",
              "name": "email",
              "type": "string"
            },
            {
              "internalType": "uint256",
              "name": "phoneNo",
              "type": "uint256"
            },
            {
              "internalType": "uint256",
              "name": "ticketNo",
              "type": "uint256"
            },
            {
              "internalType": "bool",
              "name": "refunded",
              "type": "bool"
            }
          ],
          "internalType": "struct Event.Ticket",
          "name": "t",
          "type": "tuple"
        }
      ],
      "stateMutability": "view",
      "type": "function"
    },
    {
      "inputs": [
        {
          "internalType": "uint256",
          "name": "",
          "type": "uint256"
        }
      ],
      "name": "details",
      "outputs": [
        {
          "internalType": "address",
          "name": "buyer",
          "type": "address"
        },
        {
          "internalType": "string",
          "name": "name",
          "type": "string"
        },
        {
          "internalType": "string",
          "name": "email",
          "type": "string"
        },
        {
          "internalType": "uint256",
          "name": "phoneNo",
          "type": "uint256"
        },
        {
          "internalType": "uint256",
          "name": "ticketNo",
          "type": "uint256"
        },
        {
          "internalType": "bool",
          "name": "refunded",
          "type": "bool"
        }
      ],
      "stateMutability": "view",
      "type": "function"
    },
    {
      "inputs": [],
      "name": "eth",
      "outputs": [
        {
          "internalType": "uint256",
          "name": "",
          "type": "uint256"
        }
      ],
      "stateMutability": "view",
      "type": "function"
    },
    {
      "inputs": [],
      "name": "ethforvip",
      "outputs": [
        {
          "internalType": "uint256",
          "name": "",
          "type": "uint256"
        }
      ],
      "stateMutability": "view",
      "type": "function"
    },
    {
      "inputs": [],
      "name": "eventDate",
      "outputs": [
        {
          "internalType": "uint256",
          "name": "",
          "type": "uint256"
        }
      ],
      "stateMutability": "view",
      "type": "function"
    },
    {
      "inputs": [],
      "name": "owner",
      "outputs": [
        {
          "internalType": "address",
          "name": "",
          "type": "address"
        }
      ],
      "stateMutability": "view",
      "type": "function"
    },
    {
      "inputs": [
        {
          "internalType": "string",
          "name": "_name",
          "type": "string"
        },
        {
          "internalType": "string",
          "name": "_email",
          "type": "string"
        },
        {
          "internalType": "uint256",
          "name": "_phoneNo",
          "type": "uint256"
        }
      ],
      "name": "payforticket",
      "outputs": [],
      "stateMutability": "payable",
      "type": "function"
    },
    {
      "inputs": [],
      "name": "refund",
      "outputs": [],
      "stateMutability": "nonpayable",
      "type": "function"
    },
    {
      "inputs": [],
      "name": "refundforvip",
      "outputs": [],
      "stateMutability": "nonpayable",
      "type": "function"
    },
    {
      "inputs": [],
      "name": "renounceOwnership",
      "outputs": [],
      "stateMutability": "nonpayable",
      "type": "function"
    },
    {
      "inputs": [],
      "name": "seats",
      "outputs": [
        {
          "internalType": "uint256",
          "name": "",
          "type": "uint256"
        }
      ],
      "stateMutability": "view",
      "type": "function"
    },
    {
      "inputs": [
        {
          "internalType": "uint256",
          "name": "_eventdate",
          "type": "uint256"
        }
      ],
      "name": "seteventdate",
      "outputs": [],
      "stateMutability": "nonpayable",
      "type": "function"
    },
    {
      "inputs": [
        {
          "internalType": "uint256",
          "name": "_ticket",
          "type": "uint256"
        },
        {
          "internalType": "uint256",
          "name": "_vipticket",
          "type": "uint256"
        }
      ],
      "name": "setticketprize",
      "outputs": [],
      "stateMutability": "nonpayable",
      "type": "function"
    },
    {
      "inputs": [],
      "name": "soldticket",
      "outputs": [
        {
          "internalType": "uint256",
          "name": "",
          "type": "uint256"
        }
      ],
      "stateMutability": "view",
      "type": "function"
    },
    {
      "inputs": [],
      "name": "soldvipticket",
      "outputs": [
        {
          "internalType": "uint256",
          "name": "",
          "type": "uint256"
        }
      ],
      "stateMutability": "view",
      "type": "function"
    },
    {
      "inputs": [
        {
          "internalType": "address",
          "name": "newOwner",
          "type": "address"
        }
      ],
      "name": "transferOwnership",
      "outputs": [],
      "stateMutability": "nonpayable",
      "type": "function"
    },
    {
      "inputs": [
        {
          "internalType": "address",
          "name": "",
          "type": "address"
        }
      ],
      "name": "usertoTicket",
      "outputs": [
        {
          "internalType": "uint256",
          "name": "",
          "type": "uint256"
        }
      ],
      "stateMutability": "view",
      "type": "function"
    },
    {
      "inputs": [
        {
          "internalType": "address",
          "name": "",
          "type": "address"
        }
      ],
      "name": "usertoVipTicket",
      "outputs": [
        {
          "internalType": "uint256",
          "name": "",
          "type": "uint256"
        }
      ],
      "stateMutability": "view",
      "type": "function"
    },
    {
      "inputs": [
        {
          "internalType": "uint256",
          "name": "",
          "type": "uint256"
        }
      ],
      "name": "vipdetails",
      "outputs": [
        {
          "internalType": "address",
          "name": "buyer",
          "type": "address"
        },
        {
          "internalType": "string",
          "name": "name",
          "type": "string"
        },
        {
          "internalType": "string",
          "name": "email",
          "type": "string"
        },
        {
          "internalType": "uint256",
          "name": "phoneNo",
          "type": "uint256"
        },
        {
          "internalType": "uint256",
          "name": "ticketNo",
          "type": "uint256"
        },
        {
          "internalType": "bool",
          "name": "refunded",
          "type": "bool"
        }
      ],
      "stateMutability": "view",
      "type": "function"
    },
    {
      "inputs": [],
      "name": "vipseats",
      "outputs": [
        {
          "internalType": "uint256",
          "name": "",
          "type": "uint256"
        }
      ],
      "stateMutability": "view",
      "type": "function"
    },
    {
      "inputs": [],
      "name": "withdraw",
      "outputs": [],
      "stateMutability": "nonpayable",
      "type": "function"
    }
  ],
  "bytecode": "0x608060405266038d7ea4c68000600155660e35fa931a00006002556064600355603260045534801561002f575f5ffd5b50335f73ffffffffffffffffffffffffffffffffffffffff168173ffffffffffffffffffffffffffffffffffffffff16036100a1575f6040517f1e4fbdf700000000000000000000000000000000000000000000000000000000815260040161009891906101cb565b60405180910390fd5b6100b0816100cb60201b60201c565b5062093a80426100c0919061021a565b60058190555061024d565b5f5f5f9054906101000a900473ffffffffffffffffffffffffffffffffffffffff169050815f5f6101000a81548173ffffffffffffffffffffffffffffffffffffffff021916908373ffffffffffffffffffffffffffffffffffffffff1602179055508173ffffffffffffffffffffffffffffffffffffffff168173ffffffffffffffffffffffffffffffffffffffff167f8be0079c531659141344cd1fd0a4f28419497f9722a3daafe3b4186f6b6457e060405160405180910390a35050565b5f73ffffffffffffffffffffffffffffffffffffffff82169050919050565b5f6101b58261018c565b9050919050565b6101c5816101ab565b82525050565b5f6020820190506101de5f8301846101bc565b92915050565b5f819050919050565b7f4e487b71000000000000000000000000000000000000000000000000000000005f52601160045260245ffd5b5f610224826101e4565b915061022f836101e4565b9250828201905080821115610247576102466101ed565b5b92915050565b612b548061025a5f395ff3fe60806040526004361061013f575f3560e01c80637ab05004116100b5578063a55671971161006e578063a5567197146103eb578063acae79bb14610415578063ad90cf8d14610451578063d94d39141461046d578063ef265cbe14610497578063f2fde38b146104c15761013f565b80637ab05004146102c85780638c7c9e0c146103045780638da5cb5b1461032e57806398721575146103585780639c5655d614610380578063a005ec7a146103aa5761013f565b80634b87bb84116101075780634b87bb84146102085780634bfbe5df1461023257806353ab36481461025c578063590e1ae314610286578063609af3a71461029c578063715018a6146102b25761013f565b8063332c4fde14610143578063352371fe146101845780633ccfd60b146101a05780633d784677146101b65780633ea52614146101de575b5f5ffd5b34801561014e575f5ffd5b5061016960048036038101906101649190611d40565b6104e9565b60405161017b96959493929190611e43565b60405180910390f35b61019e60048036038101906101999190611fdc565b610667565b005b3480156101ab575f5ffd5b506101b4610990565b005b3480156101c1575f5ffd5b506101dc60048036038101906101d79190612064565b610ae8565b005b3480156101e9575f5ffd5b506101f2610b28565b6040516101ff91906121a4565b60405180910390f35b348015610213575f5ffd5b5061021c610dde565b60405161022991906121a4565b60405180910390f35b34801561023d575f5ffd5b50610246611094565b60405161025391906121c4565b60405180910390f35b348015610267575f5ffd5b5061027061109a565b60405161027d91906121c4565b60405180910390f35b348015610291575f5ffd5b5061029a6110a0565b005b3480156102a7575f5ffd5b506102b061131c565b005b3480156102bd575f5ffd5b506102c6611598565b005b3480156102d3575f5ffd5b506102ee60048036038101906102e99190612207565b6115ab565b6040516102fb91906121c4565b60405180910390f35b34801561030f575f5ffd5b506103186115c0565b60405161032591906121c4565b60405180910390f35b348015610339575f5ffd5b506103426115c6565b60405161034f9190612232565b60405180910390f35b348015610363575f5ffd5b5061037e60048036038101906103799190611d40565b6115ed565b005b34801561038b575f5ffd5b506103946115ff565b6040516103a191906121c4565b60405180910390f35b3480156103b5575f5ffd5b506103d060048036038101906103cb9190611d40565b611605565b6040516103e296959493929190611e43565b60405180910390f35b3480156103f6575f5ffd5b506103ff611783565b60405161040c91906121c4565b60405180910390f35b348015610420575f5ffd5b5061043b60048036038101906104369190612207565b611789565b60405161044891906121c4565b60405180910390f35b61046b60048036038101906104669190611fdc565b61179e565b005b348015610478575f5ffd5b50610481611ac7565b60405161048e91906121c4565b60405180910390f35b3480156104a2575f5ffd5b506104ab611ad3565b6040516104b891906121c4565b60405180910390f35b3480156104cc575f5ffd5b506104e760048036038101906104e29190612207565b611adf565b005b600981815481106104f8575f80fd5b905f5260205f2090600602015f91509050805f015f9054906101000a900473ffffffffffffffffffffffffffffffffffffffff169080600101805461053c90612278565b80601f016020809104026020016040519081016040528092919081815260200182805461056890612278565b80156105b35780601f1061058a576101008083540402835291602001916105b3565b820191905f5260205f20905b81548152906001019060200180831161059657829003601f168201915b5050505050908060020180546105c890612278565b80601f01602080910402602001604051908101604052809291908181526020018280546105f490612278565b801561063f5780601f106106165761010080835404028352916020019161063f565b820191905f5260205f20905b81548152906001019060200180831161062257829003601f168201915b505050505090806003015490806004015490806005015f9054906101000a900460ff16905086565b60015434146106ab576040517f08c379a00000000000000000000000000000000000000000000000000000000081526004016106a290612318565b60405180910390fd5b5f600354116106ef576040517f08c379a00000000000000000000000000000000000000000000000000000000081526004016106e690612380565b60405180910390fd5b5f60065f3373ffffffffffffffffffffffffffffffffffffffff1673ffffffffffffffffffffffffffffffffffffffff1681526020019081526020015f205414801561077757505f60075f3373ffffffffffffffffffffffffffffffffffffffff1673ffffffffffffffffffffffffffffffffffffffff1681526020019081526020015f2054145b6107b6576040517f08c379a00000000000000000000000000000000000000000000000000000000081526004016107ad906123e8565b60405180910390fd5b600160035f8282546107c89190612433565b925050819055505f60016008805490506107e29190612466565b905060086040518060c001604052803373ffffffffffffffffffffffffffffffffffffffff1681526020018681526020018581526020018481526020018381526020015f1515815250908060018154018082558091505060019003905f5260205f2090600602015f909190919091505f820151815f015f6101000a81548173ffffffffffffffffffffffffffffffffffffffff021916908373ffffffffffffffffffffffffffffffffffffffff16021790555060208201518160010190816108aa9190612639565b5060408201518160020190816108c09190612639565b50606082015181600301556080820151816004015560a0820151816005015f6101000a81548160ff02191690831515021790555050508060065f3373ffffffffffffffffffffffffffffffffffffffff1673ffffffffffffffffffffffffffffffffffffffff1681526020019081526020015f20819055503373ffffffffffffffffffffffffffffffffffffffff167f7d1cd329a11d8807f0374627923b6cd32942b74b38b1accf931d70a507ff739e82600154604051610982929190612708565b60405180910390a250505050565b610998611b63565b60055442116109dc576040517f08c379a00000000000000000000000000000000000000000000000000000000081526004016109d390612779565b60405180910390fd5b5f4790505f6109e96115c6565b73ffffffffffffffffffffffffffffffffffffffff1682604051610a0c906127c4565b5f6040518083038185875af1925050503d805f8114610a46576040519150601f19603f3d011682016040523d82523d5f602084013e610a4b565b606091505b5050905080610a8f576040517f08c379a0000000000000000000000000000000000000000000000000000000008152600401610a8690612822565b60405180910390fd5b610a976115c6565b73ffffffffffffffffffffffffffffffffffffffff167f884edad9ce6fa2440d8a54cc123490eb96d2768479d49ff9c7366125a942436483604051610adc91906121c4565b60405180910390a25050565b610af0611b63565b670de0b6b3a764000082610b049190612840565b600181905550670de0b6b3a764000081610b1e9190612840565b6002819055505050565b610b30611cb2565b5f60065f3373ffffffffffffffffffffffffffffffffffffffff1673ffffffffffffffffffffffffffffffffffffffff1681526020019081526020015f205490505f8111610bb3576040517f08c379a0000000000000000000000000000000000000000000000000000000008152600401610baa906128cb565b60405180910390fd5b5f600182610bc19190612433565b90506008805490508110610c0a576040517f08c379a0000000000000000000000000000000000000000000000000000000008152600401610c0190612933565b60405180910390fd5b60088181548110610c1e57610c1d612951565b5b905f5260205f2090600602016040518060c00160405290815f82015f9054906101000a900473ffffffffffffffffffffffffffffffffffffffff1673ffffffffffffffffffffffffffffffffffffffff1673ffffffffffffffffffffffffffffffffffffffff168152602001600182018054610c9990612278565b80601f0160208091040260200160405190810160405280929190818152602001828054610cc590612278565b8015610d105780601f10610ce757610100808354040283529160200191610d10565b820191905f5260205f20905b815481529060010190602001808311610cf357829003601f168201915b50505050508152602001600282018054610d2990612278565b80601f0160208091040260200160405190810160405280929190818152602001828054610d5590612278565b8015610da05780601f10610d7757610100808354040283529160200191610da0565b820191905f5260205f20905b815481529060010190602001808311610d8357829003601f168201915b505050505081526020016003820154815260200160048201548152602001600582015f9054906101000a900460ff1615151515815250509250505090565b610de6611cb2565b5f60075f3373ffffffffffffffffffffffffffffffffffffffff1673ffffffffffffffffffffffffffffffffffffffff1681526020019081526020015f205490505f8111610e69576040517f08c379a0000000000000000000000000000000000000000000000000000000008152600401610e60906128cb565b60405180910390fd5b5f600182610e779190612433565b90506009805490508110610ec0576040517f08c379a0000000000000000000000000000000000000000000000000000000008152600401610eb790612933565b60405180910390fd5b60098181548110610ed457610ed3612951565b5b905f5260205f2090600602016040518060c00160405290815f82015f9054906101000a900473ffffffffffffffffffffffffffffffffffffffff1673ffffffffffffffffffffffffffffffffffffffff1673ffffffffffffffffffffffffffffffffffffffff168152602001600182018054610f4f90612278565b80601f0160208091040260200160405190810160405280929190818152602001828054610f7b90612278565b8015610fc65780601f10610f9d57610100808354040283529160200191610fc6565b820191905f5260205f20905b815481529060010190602001808311610fa957829003601f168201915b50505050508152602001600282018054610fdf90612278565b80601f016020809104026020016040519081016040528092919081815260200182805461100b90612278565b80156110565780601f1061102d57610100808354040283529160200191611056565b820191905f5260205f20905b81548152906001019060200180831161103957829003601f168201915b505050505081526020016003820154815260200160048201548152602001600582015f9054906101000a900460ff1615151515815250509250505090565b60055481565b60025481565b5f60065f3373ffffffffffffffffffffffffffffffffffffffff1673ffffffffffffffffffffffffffffffffffffffff1681526020019081526020015f205490506005544210611125576040517f08c379a000000000000000000000000000000000000000000000000000000000815260040161111c906129c8565b60405180910390fd5b5f8111611167576040517f08c379a000000000000000000000000000000000000000000000000000000000815260040161115e90612a30565b60405180910390fd5b5f60065f3373ffffffffffffffffffffffffffffffffffffffff1673ffffffffffffffffffffffffffffffffffffffff1681526020019081526020015f2081905550600160035f8282546111bb9190612466565b925050819055505f6001826111d09190612433565b905060088054905081101561121b576001600882815481106111f5576111f4612951565b5b905f5260205f2090600602016005015f6101000a81548160ff0219169083151502179055505b5f3373ffffffffffffffffffffffffffffffffffffffff16600154604051611242906127c4565b5f6040518083038185875af1925050503d805f811461127c576040519150601f19603f3d011682016040523d82523d5f602084013e611281565b606091505b50509050806112c5576040517f08c379a00000000000000000000000000000000000000000000000000000000081526004016112bc90612a98565b60405180910390fd5b3373ffffffffffffffffffffffffffffffffffffffff167f73f04af9dcc582a923ec15d3eea990fe34adabfff2879e28d44572e01a54abb68460015460405161130f929190612708565b60405180910390a2505050565b5f60075f3373ffffffffffffffffffffffffffffffffffffffff1673ffffffffffffffffffffffffffffffffffffffff1681526020019081526020015f2054905060055442106113a1576040517f08c379a0000000000000000000000000000000000000000000000000000000008152600401611398906129c8565b60405180910390fd5b5f81116113e3576040517f08c379a00000000000000000000000000000000000000000000000000000000081526004016113da90612a30565b60405180910390fd5b5f60075f3373ffffffffffffffffffffffffffffffffffffffff1673ffffffffffffffffffffffffffffffffffffffff1681526020019081526020015f2081905550600160045f8282546114379190612466565b925050819055505f60018261144c9190612433565b90506009805490508110156114975760016009828154811061147157611470612951565b5b905f5260205f2090600602016005015f6101000a81548160ff0219169083151502179055505b5f3373ffffffffffffffffffffffffffffffffffffffff166002546040516114be906127c4565b5f6040518083038185875af1925050503d805f81146114f8576040519150601f19603f3d011682016040523d82523d5f602084013e6114fd565b606091505b5050905080611541576040517f08c379a000000000000000000000000000000000000000000000000000000000815260040161153890612a98565b60405180910390fd5b3373ffffffffffffffffffffffffffffffffffffffff167f73f04af9dcc582a923ec15d3eea990fe34adabfff2879e28d44572e01a54abb68460025460405161158b929190612708565b60405180910390a2505050565b6115a0611b63565b6115a95f611bea565b565b6007602052805f5260405f205f915090505481565b60015481565b5f5f5f9054906101000a900473ffffffffffffffffffffffffffffffffffffffff16905090565b6115f5611b63565b8060058190555050565b60035481565b60088181548110611614575f80fd5b905f5260205f2090600602015f91509050805f015f9054906101000a900473ffffffffffffffffffffffffffffffffffffffff169080600101805461165890612278565b80601f016020809104026020016040519081016040528092919081815260200182805461168490612278565b80156116cf5780601f106116a6576101008083540402835291602001916116cf565b820191905f5260205f20905b8154815290600101906020018083116116b257829003601f168201915b5050505050908060020180546116e490612278565b80601f016020809104026020016040519081016040528092919081815260200182805461171090612278565b801561175b5780601f106117325761010080835404028352916020019161175b565b820191905f5260205f20905b81548152906001019060200180831161173e57829003601f168201915b505050505090806003015490806004015490806005015f9054906101000a900460ff16905086565b60045481565b6006602052805f5260405f205f915090505481565b60025434146117e2576040517f08c379a00000000000000000000000000000000000000000000000000000000081526004016117d990612318565b60405180910390fd5b5f60045411611826576040517f08c379a000000000000000000000000000000000000000000000000000000000815260040161181d90612380565b60405180910390fd5b5f60075f3373ffffffffffffffffffffffffffffffffffffffff1673ffffffffffffffffffffffffffffffffffffffff1681526020019081526020015f20541480156118ae57505f60065f3373ffffffffffffffffffffffffffffffffffffffff1673ffffffffffffffffffffffffffffffffffffffff1681526020019081526020015f2054145b6118ed576040517f08c379a00000000000000000000000000000000000000000000000000000000081526004016118e490612b00565b60405180910390fd5b600160045f8282546118ff9190612433565b925050819055505f60016009805490506119199190612466565b905060096040518060c001604052803373ffffffffffffffffffffffffffffffffffffffff1681526020018681526020018581526020018481526020018381526020015f1515815250908060018154018082558091505060019003905f5260205f2090600602015f909190919091505f820151815f015f6101000a81548173ffffffffffffffffffffffffffffffffffffffff021916908373ffffffffffffffffffffffffffffffffffffffff16021790555060208201518160010190816119e19190612639565b5060408201518160020190816119f79190612639565b50606082015181600301556080820151816004015560a0820151816005015f6101000a81548160ff02191690831515021790555050508060075f3373ffffffffffffffffffffffffffffffffffffffff1673ffffffffffffffffffffffffffffffffffffffff1681526020019081526020015f20819055503373ffffffffffffffffffffffffffffffffffffffff167f7d1cd329a11d8807f0374627923b6cd32942b74b38b1accf931d70a507ff739e82600254604051611ab9929190612708565b60405180910390a250505050565b5f600980549050905090565b5f600880549050905090565b611ae7611b63565b5f73ffffffffffffffffffffffffffffffffffffffff168173ffffffffffffffffffffffffffffffffffffffff1603611b57575f6040517f1e4fbdf7000000000000000000000000000000000000000000000000000000008152600401611b4e9190612232565b60405180910390fd5b611b6081611bea565b50565b611b6b611cab565b73ffffffffffffffffffffffffffffffffffffffff16611b896115c6565b73ffffffffffffffffffffffffffffffffffffffff1614611be857611bac611cab565b6040517f118cdaa7000000000000000000000000000000000000000000000000000000008152600401611bdf9190612232565b60405180910390fd5b565b5f5f5f9054906101000a900473ffffffffffffffffffffffffffffffffffffffff169050815f5f6101000a81548173ffffffffffffffffffffffffffffffffffffffff021916908373ffffffffffffffffffffffffffffffffffffffff1602179055508173ffffffffffffffffffffffffffffffffffffffff168173ffffffffffffffffffffffffffffffffffffffff167f8be0079c531659141344cd1fd0a4f28419497f9722a3daafe3b4186f6b6457e060405160405180910390a35050565b5f33905090565b6040518060c001604052805f73ffffffffffffffffffffffffffffffffffffffff16815260200160608152602001606081526020015f81526020015f81526020015f151581525090565b5f604051905090565b5f5ffd5b5f5ffd5b5f819050919050565b611d1f81611d0d565b8114611d29575f5ffd5b50565b5f81359050611d3a81611d16565b92915050565b5f60208284031215611d5557611d54611d05565b5b5f611d6284828501611d2c565b91505092915050565b5f73ffffffffffffffffffffffffffffffffffffffff82169050919050565b5f611d9482611d6b565b9050919050565b611da481611d8a565b82525050565b5f81519050919050565b5f82825260208201905092915050565b8281835e5f83830152505050565b5f601f19601f8301169050919050565b5f611dec82611daa565b611df68185611db4565b9350611e06818560208601611dc4565b611e0f81611dd2565b840191505092915050565b611e2381611d0d565b82525050565b5f8115159050919050565b611e3d81611e29565b82525050565b5f60c082019050611e565f830189611d9b565b8181036020830152611e688188611de2565b90508181036040830152611e7c8187611de2565b9050611e8b6060830186611e1a565b611e986080830185611e1a565b611ea560a0830184611e34565b979650505050505050565b5f5ffd5b5f5ffd5b7f4e487b71000000000000000000000000000000000000000000000000000000005f52604160045260245ffd5b611eee82611dd2565b810181811067ffffffffffffffff82111715611f0d57611f0c611eb8565b5b80604052505050565b5f611f1f611cfc565b9050611f2b8282611ee5565b919050565b5f67ffffffffffffffff821115611f4a57611f49611eb8565b5b611f5382611dd2565b9050602081019050919050565b828183375f83830152505050565b5f611f80611f7b84611f30565b611f16565b905082815260208101848484011115611f9c57611f9b611eb4565b5b611fa7848285611f60565b509392505050565b5f82601f830112611fc357611fc2611eb0565b5b8135611fd3848260208601611f6e565b91505092915050565b5f5f5f60608486031215611ff357611ff2611d05565b5b5f84013567ffffffffffffffff8111156120105761200f611d09565b5b61201c86828701611faf565b935050602084013567ffffffffffffffff81111561203d5761203c611d09565b5b61204986828701611faf565b925050604061205a86828701611d2c565b9150509250925092565b5f5f6040838503121561207a57612079611d05565b5b5f61208785828601611d2c565b925050602061209885828601611d2c565b9150509250929050565b6120ab81611d8a565b82525050565b5f82825260208201905092915050565b5f6120cb82611daa565b6120d581856120b1565b93506120e5818560208601611dc4565b6120ee81611dd2565b840191505092915050565b61210281611d0d565b82525050565b61211181611e29565b82525050565b5f60c083015f83015161212c5f8601826120a2565b506020830151848203602086015261214482826120c1565b9150506040830151848203604086015261215e82826120c1565b915050606083015161217360608601826120f9565b50608083015161218660808601826120f9565b5060a083015161219960a0860182612108565b508091505092915050565b5f6020820190508181035f8301526121bc8184612117565b905092915050565b5f6020820190506121d75f830184611e1a565b92915050565b6121e681611d8a565b81146121f0575f5ffd5b50565b5f81359050612201816121dd565b92915050565b5f6020828403121561221c5761221b611d05565b5b5f612229848285016121f3565b91505092915050565b5f6020820190506122455f830184611d9b565b92915050565b7f4e487b71000000000000000000000000000000000000000000000000000000005f52602260045260245ffd5b5f600282049050600182168061228f57607f821691505b6020821081036122a2576122a161224b565b5b50919050565b7f796f75206861766520746f2070617920657861637420616d6f756e74206f66205f8201527f6574680000000000000000000000000000000000000000000000000000000000602082015250565b5f612302602383611db4565b915061230d826122a8565b604082019050919050565b5f6020820190508181035f83015261232f816122f6565b9050919050565b7f7365617473206172652066756c6c0000000000000000000000000000000000005f82015250565b5f61236a600e83611db4565b915061237582612336565b602082019050919050565b5f6020820190508181035f8301526123978161235e565b9050919050565b7f796f7520616c7265616479206f776e2061207469636b657400000000000000005f82015250565b5f6123d2601883611db4565b91506123dd8261239e565b602082019050919050565b5f6020820190508181035f8301526123ff816123c6565b9050919050565b7f4e487b71000000000000000000000000000000000000000000000000000000005f52601160045260245ffd5b5f61243d82611d0d565b915061244883611d0d565b92508282039050818111156124605761245f612406565b5b92915050565b5f61247082611d0d565b915061247b83611d0d565b925082820190508082111561249357612492612406565b5b92915050565b5f819050815f5260205f209050919050565b5f6020601f8301049050919050565b5f82821b905092915050565b5f600883026124f57fffffffffffffffffffffffffffffffffffffffffffffffffffffffffffffffff826124ba565b6124ff86836124ba565b95508019841693508086168417925050509392505050565b5f819050919050565b5f61253a61253561253084611d0d565b612517565b611d0d565b9050919050565b5f819050919050565b61255383612520565b61256761255f82612541565b8484546124c6565b825550505050565b5f5f905090565b61257e61256f565b61258981848461254a565b505050565b5b818110156125ac576125a15f82612576565b60018101905061258f565b5050565b601f8211156125f1576125c281612499565b6125cb846124ab565b810160208510156125da578190505b6125ee6125e6856124ab565b83018261258e565b50505b505050565b5f82821c905092915050565b5f6126115f19846008026125f6565b1980831691505092915050565b5f6126298383612602565b9150826002028217905092915050565b61264282611daa565b67ffffffffffffffff81111561265b5761265a611eb8565b5b6126658254612278565b6126708282856125b0565b5f60209050601f8311600181146126a1575f841561268f578287015190505b612699858261261e565b865550612700565b601f1984166126af86612499565b5f5b828110156126d6578489015182556001820191506020850194506020810190506126b1565b868310156126f357848901516126ef601f891682612602565b8355505b6001600288020188555050505b505050505050565b5f60408201905061271b5f830185611e1a565b6127286020830184611e1a565b9392505050565b7f6576656e74206973206e6f74206f7665720000000000000000000000000000005f82015250565b5f612763601183611db4565b915061276e8261272f565b602082019050919050565b5f6020820190508181035f83015261279081612757565b9050919050565b5f81905092915050565b50565b5f6127af5f83612797565b91506127ba826127a1565b5f82019050919050565b5f6127ce826127a4565b9150819050919050565b7f6572726f723a6661696c20746f207769746864726177206574686572000000005f82015250565b5f61280c601c83611db4565b9150612817826127d8565b602082019050919050565b5f6020820190508181035f83015261283981612800565b9050919050565b5f61284a82611d0d565b915061285583611d0d565b925082820261286381611d0d565b9150828204841483151761287a57612879612406565b5b5092915050565b7f796f7520646f6e74206f776e207469636b6574000000000000000000000000005f82015250565b5f6128b5601383611db4565b91506128c082612881565b602082019050919050565b5f6020820190508181035f8301526128e2816128a9565b9050919050565b7f20696e76616c696420696e6465780000000000000000000000000000000000005f82015250565b5f61291d600e83611db4565b9150612928826128e9565b602082019050919050565b5f6020820190508181035f83015261294a81612911565b9050919050565b7f4e487b71000000000000000000000000000000000000000000000000000000005f52603260045260245ffd5b7f726566756e6420706572696f64206973206f76657200000000000000000000005f82015250565b5f6129b2601583611db4565b91506129bd8261297e565b602082019050919050565b5f6020820190508181035f8301526129df816129a6565b9050919050565b7f796f7520646f6e74206f776e205469636b6574000000000000000000000000005f82015250565b5f612a1a601383611db4565b9150612a25826129e6565b602082019050919050565b5f6020820190508181035f830152612a4781612a0e565b9050919050565b7f6572726f723a6973737565207769746820726566756e640000000000000000005f82015250565b5f612a82601783611db4565b9150612a8d82612a4e565b602082019050919050565b5f6020820190508181035f830152612aaf81612a76565b9050919050565b7f796f75206861766520746f20627579206f6e65207469636b65740000000000005f82015250565b5f612aea601a83611db4565b9150612af582612ab6565b602082019050919050565b5f6020820190508181035f830152612b1781612ade565b905091905056fea2646970667358221220c6e6d897050b09cc2e1e5e4a0ee1635bdd682bd0a71201e819dbc667851656bb64736f6c634300081c0033",
  "linkReferences": {},
  "deployedLinkReferences": {},
  "immutableReferences": {},
  "inputSourceName": "project/contracts/event.sol",
  "buildInfoId": "solc-0_8_28-e41766efc67fdbf1657ebabcdbdc0f32b6e03282"
}